:020000040000FA
:100000000C9488000C94B0000C94B0000C94B000D8
:100010000C94B0000C94B0000C94B0000C94B000A0
:100020000C94B0000C94380E0C94B0000C947C0D21
:100030000C94B0000C94B0000C94B0000C94B00080
:100040000C94DA0C0C94B0000C944A0D0C94240D12
:100050000C94B0000C94B0000C94B0000C94B00060
:100060000C94B0000C94B000084AD73B3BCE016E14
:1000700084BCBFFDC12F3D6C74319ABD56833DDAFF
:100080003D00C77F11BED9E4BB4C3E916BAAAABE0E
:10009000000000803F072C7AA5BA6CC590DA3B932C
:1000A00065FC8BBC53F810FD3C5692834DBD879D7B
:1000B0003AB63DCBC9BF5BBE73DA0FC93F00000043
:1000C0000008000201000003040700000000000017
:1000D000000000000000250028002B0000000000A8
:1000E000240027002A000404040404040404020277
:1000F00002020202030303030303010204081020A7
:100100004080010204081020010204081020BA11E6
:1001100011241FBECFEFD8E0DEBFCDBF13E0A0E0BB
:10012000B1E0E2EBF3E502C005900D92A03FB1070C
:10013000D9F725E0A0EFB3E001C01D92A039B207C6
:10014000E1F710E0C8E8D0E004C02197FE010E946A
:10015000D129C738D107C9F70E9424120C94D72996
:100160000C94000090E0FC01E650FF4F24918A516E
:100170009F4FFC018491882399F090E0880F991F8C
:10018000FC01E452FF4FA591B491FC01EE52FF4FE8
:10019000859194918FB7F894EC91E22BEC938FBFFB
:1001A000089590E0FC01E254FF4F2491FC01E650D9
:1001B000FF4F3491FC01EA51FF4FE491EE23C9F067
:1001C000222339F0233001F1A8F4213019F1223033
:1001D00029F1F0E0EE0FFF1FEE52FF4FA591B49111
:1001E0008FB7F894EC91611126C030953E233C9373
:1001F0008FBF08952730A9F02830C9F0243049F77F
:10020000809180008F7D03C0809180008F778093E4
:100210008000DFCF84B58F7784BDDBCF84B58F7D41
:10022000FBCF8091B0008F778093B000D2CF8091C8
:10023000B0008F7DF9CF3E2BDACF3FB7F894809195
:10024000720490917304A0917404B091750426B562
:10025000A89B05C02F3F19F00196A11DB11D3FBFFE
:10026000BA2FA92F982F8827BC01CD01620F711DCD
:10027000811D911D42E0660F771F881F991F4A95C7
:10028000D1F708958F929F92AF92BF92CF92DF9253
:10029000EF92FF924B015C010E941D016B017C01FA
:1002A0000E941D016C197D098E099F09683E7340EB
:1002B00081059105A8F321E0821A9108A108B108EF
:1002C00088EEC80E83E0D81EE11CF11C8114910455
:1002D000A104B10429F7FF90EF90DF90CF90BF9079
:1002E000AF909F908F900895AF92BF92CF92DF9280
:1002F000EF92FF920F931F93CF93DF936C017B01DB
:100300008B01040F151FEB015E01AE18BF08C0176B
:10031000D10759F06991D601ED91FC910190F081DE
:10032000E02DC6010995892B79F7C501DF91CF91A1
:100330001F910F91FF90EF90DF90CF90BF90AF9003
:100340000895FC01538D448D252F30E0842F90E0DB
:10035000821B930B541710F0CF96089501970895C0
:10036000FC01918D828D981761F0A28DAE0FBF2F89
:10037000B11D5D968C91928D9F5F9F73928F90E0DF
:1003800008958FEF9FEF0895FC01918D828D98174E
:1003900031F0828DE80FF11D858D90E008958FEF8B
:1003A0009FEF0895FC01918D228D892F90E0805C54
:1003B0009F4F821B91098F73992708958AEA94E0D1
:1003C0000E94D20121E0892B09F420E0822F0895B8
:1003D00080E090E0892B29F00E94DE0181110C94CD
:1003E00000000895FC01A48DA80FB92FB11DA35AD8
:1003F000BF4F2C91848D90E001968F739927848F45
:10040000A689B7892C93A089B1898C918370806467
:100410008C93938D848D981306C00288F389E02D08
:1004200080818F7D80830895EF92FF920F931F93B9
:10043000CF93DF93EC0181E0888F9B8D8C8D981397
:100440001AC0E889F989808185FF15C09FB7F894A3
:10045000EE89FF896083E889F989808183708064EF
:1004600080839FBF81E090E0DF91CF911F910F913A
:10047000FF90EF900895F62E0B8D10E00F5F1F4F49
:100480000F731127E02E8C8D8E110CC00FB607FC58
:10049000FACFE889F989808185FFF5CFCE010E94E6
:1004A000F201F1CFEB8DEC0FFD2FF11DE35AFF4F61
:1004B000F0829FB7F8940B8FEA89FB898081806274
:1004C000CFCFCF93DF93EC01888D8823B9F0AA8931
:1004D000BB89E889F9898C9185FD03C0808186FDFF
:1004E0000DC00FB607FCF7CF8C9185FFF2CF80814E
:1004F00085FFEDCFCE010E94F201E9CFDF91CF91D0
:100500000895CF92DF92EF92FF92CF93DF93EC01A9
:10051000603282E07807CCF5653B710514F064EB3E
:1005200070E0898128E830E0281B310987FD339588
:10053000220F331F220F331F6901330FEE08FF080C
:100540008A8128E532E0281B310987FD3395220F87
:10055000331F220F331F032E000C440B550B2C1995
:100560003D094E095F09DB0177FF02C0B0E0A0E062
:100570000E941D2624EB30E040E050E00E94F3256D
:10058000C20ED31EE41EF51EB601E881EC3070F5F4
:10059000298188E890E0821B910927FD9395880FB7
:1005A000991F880F991F681779077CF02A8188E5C1
:1005B00092E0821B910927FD9395880F991F880F60
:1005C000991F681779070CF4CB010297880F991FC0
:1005D0004FB7F8942E2F30E0F901EE0FFF1FE20F16
:1005E000F31FE95BFA4F928381834FBFDF91CF9175
:1005F000FF90EF90DF90CF9008955F926F927F927F
:100600008F929F92AF92BF92CF92DF92EF92FF9222
:100610000F931F93CF93DF9310E000E08CE0582EF0
:10062000509EE001519ED00D1124CE0186589B4F63
:100630007C01C45CDB4F5C0194E0A90EB11C4E014F
:10064000E4E08E0E911C6701F8E0CF0ED11C3E0154
:1006500088E0680E711CF70160817181828193814D
:10066000288139814A815B810E9446278111F3CF1D
:10067000F5016081718182819381F4012081318152
:10068000428153810E9446278111E5CFF6016081A6
:10069000718182819381F301208131814281538173
:1006A0000E9446278111D7CF0F5F1F4F04301105DD
:1006B00009F0B6CFDF91CF911F910F91FF90EF908E
:1006C000DF90CF90BF90AF909F908F907F906F9072
:1006D0005F9008959F92AF92BF92CF92DF92EF9278
:1006E000FF920F931F93CF93DF932CE6C22E25E04A
:1006F000D22E34E0E32E31E0F32E4CE0B42E52E063
:10070000A52EE60110E000E088818C3008F052C090
:10071000F801EE0FFF1FEE0DFF1D9080892D0E9446
:10072000B2008881282F30E0F901EE0FFF1FE20FA1
:10073000F31FE95BFA4F292D2F739081907C922B48
:10074000908319821A826B2D0E94C5298B9DA0016E
:10075000112430E020E0BA01620F731FFB01EE0F9D
:10076000FF1FE60FF71FE95BFA4F908196FD15C05A
:100770002F5F3F4F2C30310571F781110EC0109261
:100780008000A09281001092850010928400B19A9E
:1007900080916F00826080936F00E8818E2F90E0DF
:1007A000FC01EE0FFF1FE80FF91FE95BFA4F808194
:1007B0008064808364E670E080E090E00E94420103
:1007C0000F5F1F4F23960330110509F09DCF89E07D
:1007D000C80ED11C86E0E80EF11C8CE1E81681E021
:1007E000F80609F08ECFDF91CF911F910F91FF9006
:1007F000EF90DF90CF90BF90AF909F900895FC0155
:1008000001900020E9F73197AF01481B590BBC015B
:100810008AEA94E00C947401CF93DF930E94FF0363
:10082000EC018EE291E00E94FF038C0F9D1FDF918F
:10083000CF9108952F923F924F925F926F927F9245
:100840008F929F92AF92BF92CF92DF92EF92FF92E0
:100850000F931F93CF93DF93CDB7DEB76A970FB691
:10086000F894DEBF0FBECDBF1C0149875A876B8746
:100870007C870D871E872F87388B20E030E04FE77D
:1008800053E469857A858B859C850E944627812C57
:10089000912C54018823A1F08CE0829DF001839D6E
:1008A000F00D1124E658FB4F2081318142815381A4
:1008B00069857A858B859C850E9467264B015C0142
:1008C00020E030E04FE753E46D857E858F85988981
:1008D0000E944627882309F432C18CE0829DF001F2
:1008E000839DF00D1124E658FB4F2481358146810C
:1008F00057816D857E858F8598890E9467266983DB
:100900007A838B839C8320E030E04FE753E4C70178
:10091000B6010E944627882309F416C18CE0829D07
:10092000F001839DF00D1124E658FB4F20853185A1
:1009300042855385C701B6010E9467266D837E8379
:100940008F839887A5019401C501B4010E94F928FD
:100950002B013C0129813A814B815C81CA01B9019B
:100960000E94F9289B01AC01C301B2010E946826D4
:100970002B013C012D813E814F815885CA01B9016F
:100980000E94F9289B01AC01C301B2010E946826B4
:100990000E946C292B013C01809176049091770490
:1009A000A0917804B0917904898B9A8BAB8BBC8B26
:1009B0008091000190910101A0910201B091030189
:1009C0008D8B9E8BAF8BB88F8CE0829D8001839D39
:1009D000100D1124D801A250BC4FBA8FA98FA301CA
:1009E0009201C501B4010E944B2729893A894B899C
:1009F0005C890E94F9282D893E894F89588D0E9473
:100A0000F928E98DFA8D6083718382839383A30132
:100A1000920169817A818B819C810E944B2729896F
:100A20003A894B895C890E94F9282D893E894F8932
:100A3000588D0E94F928A98DBA8D14966D937D93D7
:100A40008D939C931797A30192016D817E818F8175
:100A500098850E944B2729893A894B895C890E9495
:100A6000F9282D893E894F89588D0E94F928E98DF2
:100A7000FA8D608771878287938720E030E04FE7A7
:100A800053E469857A858B859C850E944627882357
:100A900059F0F801E45CFB4F89859A85AB85BC85EC
:100AA00080839183A283B38320E030E04FE753E457
:100AB0006D857E858F8598890E944627882381F0E1
:100AC0008CE0829DF001839DF00D1124E45CFB4FCE
:100AD0008D859E85AF85B88984839583A683B783EA
:100AE00020E030E04FE753E4C701B6010E944627FB
:100AF000882361F08CE0829DF001839DF00D11242C
:100B0000E45CFB4FC086D186E286F3866A960FB618
:100B1000F894DEBF0FBECDBFDF91CF911F910F9133
:100B2000FF90EF90DF90CF90BF90AF909F908F900D
:100B30007F906F905F904F903F902F900895198213
:100B40001A821B821C82DFCE1D821E821F821886A3
:100B5000F9CECF92DF92EF92FF920F931F93CF9334
:100B6000DF93CAE7D4E0688179818A819B8120E0A4
:100B700030E040E751E40E946826AB01BC01C12C83
:100B8000D12C8FE7E82E83E4F82E9701860190E0C0
:100B900080E00E941A046C857D858E859F8520E00B
:100BA00030E040E751E40E946826AB01BC019701A8
:100BB00081E090E00E941A04688D798D8A8D9B8D6A
:100BC00020E030E040E751E40E946726AB01BC0121
:100BD000970182E090E00E941A046CA17DA18EA191
:100BE0009FA120E030E040E751E40E946726AB017E
:100BF000BC01970183E090E00E941A04DF91CF913D
:100C00001F910F91FF90EF90DF90CF900C94FD0219
:100C1000CF92DF92EF92FF920F931F93CF93DF93C8
:100C2000CAE7D4E0688179818A819B8120E030E045
:100C300040E751E40E946726AB01BC01C12CD12CD6
:100C40008FE7E82E83E4F82E9701860190E080E09C
:100C50000E941A046C857D858E859F8520E030E09A
:100C600040E751E40E946726AB01BC01970181E097
:100C700090E00E941A04688D798D8A8D9B8D20E00A
:100C800030E040E751E40E946826AB01BC019701C7
:100C900082E090E00E941A046CA17DA18EA19FA128
:100CA00020E030E040E751E40E946826AB01BC013F
:100CB000970183E090E00E941A04DF91CF911F9189
:100CC0000F91FF90EF90DF90CF900C94FD024F9228
:100CD0005F926F927F928F929F92AF92BF92CF92CC
:100CE000DF92EF92FF920F931F93CF93DF9300D089
:100CF00000D000D0CDB7DEB780E090E0A0E8BFE341
:100D00008093760490937704A0937804B093790449
:100D10006091A2047091A3048091A4049091A50411
:100D200020E030E0A9010E94462781118FC00E9477
:100D300008068091920490919304A0919404B0913C
:100D4000950489839A83AB83BC83809096049090AA
:100D50009704A0909804B090990440909A04509001
:100D60009B0460909C0470909D0480E090E0A0E45F
:100D7000B0E48093760490937704A0937804B093C2
:100D80007904A3E0B0E0BE83AD83C12CD12C2CE567
:100D9000E22E22E4F22E00E010E020EA32E440E00D
:100DA00050E060E072E482E090E00E941A040E9449
:100DB000FD02C12CD12C30E2E32E31E4F32E00E011
:100DC00010E020EA32E440E050E060E072E482E0CB
:100DD00090E00E941A040E94FD028D819E8101977D
:100DE0009E838D83892B89F67301620195018401AD
:100DF00049815A816B817C8182E090E00E941A04D3
:100E00000E94FD0280E090E0A0E8BFE380937604BA
:100E100090937704A0937804B093790426960FB644
:100E2000F894DEBF0FBECDBFDF91CF911F910F9120
:100E3000FF90EF90DF90CF90BF90AF909F908F90FA
:100E40007F906F905F904F900C94A9050E94A90528
:100E500080917A0490917B04A0917C04B0917D04F0
:100E600089839A83AB83BC8380907E0490907F04B7
:100E7000A0908004B090810440908204509083043C
:100E8000609084047090850480E090E0A0E4B0E479
:100E90008093760490937704A0937804B0937904B8
:100EA000A3E0B0E0BE83AD83C12CD12C8CE5E82E4D
:100EB00082E4F82E00E010E020EA32E440E050E066
:100EC00060E072E490E080E00E941A040E94FD025B
:100ED000C12CD12C90E2E92E91E4F92E00E010E033
:100EE00020EA32E440E050E060E072E490E080E02C
:100EF0000E941A040E94FD028D819E8101979E83AB
:100F00008D83892B89F673016201950184014981E2
:100F10005A816B817C8190E080E00E941A040E94DB
:100F2000FD0280E090E0A0E8BFE380937604909318
:100F30007704A0937804B093790426960FB6F894BA
:100F4000DEBF0FBECDBFDF91CF911F910F91FF90FC
:100F5000EF90DF90CF90BF90AF909F908F907F9059
:100F60006F905F904F900C940806CF92DF92EF92B3
:100F7000FF920F931F93CF93DF9380E090E0A0E860
:100F8000BFE38093760490937704A0937804B093A2
:100F90007904D0E0C0E0C12CD12C88E4E82E82ECAA
:100FA000F82E00E010E02FE733E4B901A801CE01EC
:100FB0000E941A042196C430D10569F7DF91CF91C0
:100FC0001F910F91FF90EF90DF90CF900C94FD0256
:100FD000CF92DF92EF92FF920F931F93CF93DF9305
:100FE00080E090E0A0E8BFE38093760490937704DC
:100FF000A0937804B0937904D0E0C0E0C12CD12C48
:1010000080EEE82E81ECF82E00E010E02FE733E4CC
:10101000B901A801CE010E941A042196C430D1055D
:1010200069F7DF91CF911F910F91FF90EF90DF90C3
:10103000CF900C94FD024F925F926F927F928F92AD
:101040009F92AF92BF92CF92DF92EF92FF920F9357
:101050001F93CF93DF930E94E80780E090E0A0E821
:10106000BFE38093760490937704A0937804B093C1
:101070007904C12CD12C9FE7E92E93E4F92E00E0EE
:1010800010E028E732E4B901A80190E080E00E9476
:101090001A0400E010E028E732E4B901A80181E079
:1010A00090E00E941A0400E010E028E732E4B90161
:1010B000A80182E090E00E941A0400E010E028E716
:1010C00032E4B901A80183E090E00E941A040E9472
:1010D000FD02C12CD12C2CE8E22E22ECF22E00E0F5
:1010E00010E028E732E4B901A80190E080E00E9416
:1010F0001A0400E010E028E732E4B901A80181E019
:1011000090E00E941A0400E010E028E732E4B90100
:10111000A80182E090E00E941A0400E010E028E7B5
:1011200032E4B901A80183E090E00E941A040E9411
:10113000FD0280E090E0A0E0B0E48093760490931C
:101140007704A0937804B09379046091820470913D
:101150008304809184049091850420E030E040EF86
:1011600051E40E9467266B017C0100E010E02FE74C
:1011700033E4B901A80190E080E00E941A04609174
:101180008E0470918F04809190049091910420E0DE
:1011900030E040EF51E40E9468266B017C0100E0E2
:1011A00010E02FE733E4B901A80181E090E00E944C
:1011B0001A0460919A0470919B0480919C04909110
:1011C0009D0420E030E040EF51E40E9467266B016F
:1011D0007C0100E010E02FE733E4B901A80182E0D0
:1011E00090E00E941A046091A6047091A704809177
:1011F000A8049091A90420E030E040EF51E40E945F
:1012000068266B017C0100E010E02FE733E4B901B0
:10121000A80183E090E00E941A040E94FD02D0E041
:10122000C0E0812C912C30E8A32E30E4B32E412C69
:10123000512C40EC642E40E4742EC12CD12C8FE74D
:10124000E82E83E4F82E00E010E028E232E4B70153
:10125000A60190E080E00E941A0400E010E024EA79
:1012600032E4B701A60181E090E00E941A0400E098
:1012700010E028E232E4B701A60182E090E00E948B
:101280001A0400E010E024EA32E4B701A60183E08A
:1012900090E00E941A040E94FD0200E010E024EA9F
:1012A00032E4B701A60190E080E00E941A0400E059
:1012B00010E028E232E4B701A60181E090E00E944C
:1012C0001A0400E010E024EA32E4B701A60182E04B
:1012D00090E00E941A0400E010E028E232E4B70136
:1012E000A60183E090E00E941A040E94FD0221966C
:1012F000CA30D10509F086C080E090E0A0E0B0E4FB
:101300008093760490937704A0937804B093790443
:10131000609182047091830480918404909185048B
:1013200020E030E040EF51E40E9468266B017C0130
:1013300000E010E02FE733E4B901A80190E080E07D
:101340000E941A0460918E0470918F048091900421
:101350009091910420E030E040EF51E40E94672634
:101360006B017C0100E010E02FE733E4B901A80134
:1013700081E090E00E941A0460919A0470919B04AD
:1013800080919C0490919D0420E030E040EF51E476
:101390000E9468266B017C0100E010E02FE733E437
:1013A000B901A80182E090E00E941A046091A604AD
:1013B0007091A7048091A8049091A90420E030E0E6
:1013C00040EF51E40E9467266B017C0100E010E0D1
:1013D0002FE733E4B901A80183E090E00E941A04EA
:1013E000DF91CF911F910F91FF90EF90DF90CF9001
:1013F000BF90AF909F908F907F906F905F904F9035
:101400000C94FD02C330D10544F080927604909292
:101410007704A0927804B0927904C630D1050CF418
:101420000CCF4092760450927704609278047092C8
:10143000790403CF2F923F924F925F926F927F92E7
:101440008F929F92AF92BF92CF92DF92EF92FF92D4
:101450000F931F93CF93DF93CDB7DEB768970FB687
:10146000F894DEBF0FBECDBF78948CE695E09E83E6
:101470008D83AEEFB3E0BC87AB87312C212CEB859D
:10148000FC85FA83E98318861F827101EE0CFF1C2C
:10149000E20CF31C67010F8118850E0D1F1D000F54
:1014A000111F000F111FC80186589B4F5C01DC0102
:1014B0006D917D918D919C91045C1B4FF801208171
:1014C0003181428153810E94672620E030E0A901EA
:1014D0000E94EC28D50118160CF0C2C16D917D91C7
:1014E0008D919C91F80120813181428153810E942C
:1014F00067262B013C01A981BA818D909D90AD900A
:10150000BD90BA83A98320E030E0A901C501B401F0
:101510000E94EC28A501940118160CF05058C30144
:10152000B2010E94EC2887FDADC10F8118850C0D1A
:101530001D1D000F111F000F111F06581B4FF80132
:101540002081318142815381C501B4010E94682606
:10155000D8016D937D938D939C9313978F8198857C
:10156000019698878F83039709F095CF9CE0929D11
:10157000F001939DF00D1124E658FB4FC084D184F7
:10158000E284F38484819581A681B78189839A83DB
:10159000AB83BC83408051806280738020E030E068
:1015A000A901C301B2010E94EC28812C912C90E882
:1015B000A92E9FE3B92E87FF06C0812C912C80E8CD
:1015C000A82E8FEBB82EA3019201C301B2010E9495
:1015D000F9286F83788789879A8729813A814B8197
:1015E0005C81CA01B9010E94F9289B01AC016F819D
:1015F000788589859A850E9468260E946C29A501B4
:1016000094010E94F9286F83788789879A8720E060
:1016100030E04CED51E40E9467264B015C01AC01C7
:101620009B01C701B6010E94E7266D877E878F87E1
:10163000988BA5019401C501B4010E94F9284B01C2
:101640005C01A7019601C701B6010E94F928A50116
:1016500094010E9468260E946C29698B7A8B8B8B7F
:101660009C8B20E034E54AE355E4C501B4010E94B7
:1016700067266D8B7E8B8F8B988FA7019601C70194
:10168000B6010E94F9289B01AC016D897E898F8982
:10169000988D0E94682620E030E040E05FE30E94E1
:1016A000F92820E030E04CE552E40E944B272989DC
:1016B0003A894B895C890E944B270E9456269B01E0
:1016C000AC016D857E858F8598890E946826609320
:1016D000FA037093FB038093FC039093FD03A50131
:1016E000940160E07DE18DE096E40E9467264B0165
:1016F0005C01A7019601C701B6010E94F9289B0170
:10170000AC01C501B4010E94672620E030E040E052
:101710005FE30E94F92820E030E04CE552E40E94AB
:101720004B2720E030E04BE952E40E944B270E9417
:1017300056266093F6037093F7038093F803909313
:10174000F90320E030E0A9016F81788589859A85C9
:101750000E94EC28A301920187FDABC069817A81C8
:101760008B819C810E94E7266093F2037093F303C0
:101770008093F4039093F5036091FA037091FB0357
:101780008091FC039091FD032AED3FE049E450E491
:101790000E944B2720E030E044E353E40E94F92804
:1017A0004B015C018092FA039092FB03A092FC0330
:1017B000B092FD036091F6037091F7038091F803F6
:1017C0009091F9032AED3FE049E450E40E944B2751
:1017D00020E030E044E353E40E94F9282B013C016F
:1017E0004092F6035092F7036092F8037092F90367
:1017F0006091F2037091F3038091F4039091F503EB
:101800002AED3FE049E450E40E944B2720E030E01D
:1018100044E353E40E94F9286B017C01C092F20377
:10182000D092F303E092F403F092F50382016F8209
:1018300079822114310409F043C0A501940160E0CC
:1018400070E084EB92E40E9467264B015C0120E08B
:1018500030E044EB52E4C701B6010E94682653C051
:101860006D917D918D919C91F80120813181428112
:1018700053810E9467262B013C0177FA709477F818
:10188000709439CE8F8198858C0D9D1D880F991F7E
:10189000880F991FFC01E45CFB4F408151816281FC
:1018A000738186589B4FFC0140835183628373830D
:1018B00055CE505869817A818B819C81905852CF46
:1018C00091E02916310409F06FC020E030E044EBCC
:1018D00052E4C501B4010E9468264B015C019801E5
:1018E0004F81598160E070E084E393E40E946726B1
:1018F0008B018F839983A701960160E070E084EBF0
:1019000092E40E9467266B017C01C501B4010E942C
:10191000BD278D819E810E948102B8018F819981AE
:101920000E94BD278D819E8103960E948102C7017E
:10193000B6010E94BD278D819E8106960E9481027C
:10194000BFEF2B1A3B0AED81FE813996FE83ED83B2
:101950008B859C850C969C878B8794E02916310497
:1019600009F08DCD8091F0039091F1030196909351
:10197000F1038093F00368960FB6F894DEBF0FBEB4
:10198000CDBFDF91CF911F910F91FF90EF90DF902E
:10199000CF90BF90AF909F908F907F906F905F900F
:1019A0004F903F902F900895A2E02A16310409F03D
:1019B00044CF8BCF1F920F920FB60F9211242F930B
:1019C0003F938F939F93AF93BF9380916E049091B9
:1019D0006F04A0917004B091710430916D0423E004
:1019E000230F2D3758F50196A11DB11D20936D04CD
:1019F00080936E0490936F04A0937004B09371046D
:101A00008091720490917304A0917404B091750454
:101A10000196A11DB11D8093720490937304A0934D
:101A20007404B0937504BF91AF919F918F913F91D2
:101A30002F910F900FBE0F901F90189526E8230F3F
:101A40000296A11DB11DD2CF1F920F920FB60F9219
:101A500011242F933F934F935F936F937F938F93B3
:101A60009F93AF93BF93EF93FF938AEA94E00E9412
:101A7000F201FF91EF91BF91AF919F918F917F9173
:101A80006F915F914F913F912F910F900FBE0F90EB
:101A90001F9018951F920F920FB60F9211242F933B
:101AA0008F939F93EF93FF93E091BA04F091BB045F
:101AB0008081E091C004F091C10482FD1BC090813F
:101AC0008091C3048F5F8F732091C404821741F00B
:101AD000E091C304F0E0E655FB4F958F8093C3047B
:101AE000FF91EF919F918F912F910F900FBE0F90CB
:101AF0001F9018958081F4CF1F920F920FB60F920E
:101B000011242F933F934F935F936F937F938F9302
:101B10009F93AF93BF93CF93DF93EF93FF93809106
:101B20002E04C0916B05D0E087FF24C01092850081
:101B30001092840080912E048F5F80932E048091F8
:101B40002E04082E000C990B8C179D0724F480910D
:101B50002E048C30C4F1809184009091850004960D
:101B600080349C4908F47AC080918400909185006B
:101B7000049676C080912E04082E000C990B8C17C9
:101B80009D07C4F6E0912E048E2FEE0F990BFC01F9
:101B9000EE0FFF1FE80FF91FE95BFA4F808186FF08
:101BA000C9CFE0912E048E2FEE0F990BFC01EE0FA2
:101BB000FF1FE80FF91FE95BFA4F808160E08F7328
:101BC0000E94D100B7CF2091840030918500E09130
:101BD0002E048E2FEE0F990BFC01EE0FFF1FE80F66
:101BE000F91FE95BFA4F81819281820F931F9093D5
:101BF000890080938800E0912E048E2FEE0F990BC0
:101C0000FC01EE0FFF1FE80FF91FE95BFA4F80811F
:101C100086FF11C0E0912E048E2FEE0F990BFC0170
:101C2000EE0FFF1FE80FF91FE95BFA4F808161E0BB
:101C30008F730E94D100FF91EF91DF91CF91BF91FF
:101C4000AF919F918F917F916F915F914F913F9154
:101C50002F910F900FBE0F901F90189580E49CE974
:101C600090938900809388008FEF80932E04E3CFB8
:101C70001F920F920FB60F9211242F933F934F9301
:101C80005F936F937F938F939F93AF93BF93EF93E4
:101C9000FF9380913504909136048093B200809137
:101CA000380490913904A0913A04B0913B04019614
:101CB000A11DB11D8093380490933904A0933A0478
:101CC000B0933B048091380490913904A0913A0478
:101CD000B0913B044091310450913204609133043F
:101CE0007091340484179507A607B70710F1809107
:101CF000370481111EC081E080933704809138043D
:101D000090913904A0913A04B0913B04841B950B47
:101D1000A60BB70B8093380490933904A0933A0430
:101D2000B0933B04E0912F04F09130040995109298
:101D30003704FF91EF91BF91AF919F918F917F9168
:101D40006F915F914F913F912F910F900FBE0F9028
:101D50001F9018958F929F92AF92BF92CF92DF9271
:101D6000EF92FF920F931F93CF93DF9381E391E064
:101D70000E940C0480E090E0A0E4B0E4809376043C
:101D800090937704A0937804B0937904C12CD12C5C
:101D900020EEE22E21ECF22E00E010E0980140E06F
:101DA00050E068E772E481E090E00E941A0400E0ED
:101DB00010E0980140E050E068E772E483E090E0D2
:101DC0000E941A040E94FD02C12CD12C38ECE32E93
:101DD00032ECF32E00E010E0980140E050E068E7BC
:101DE00072E490E080E00E941A0400E010E09801A4
:101DF00040E050E068E772E482E090E00E941A045C
:101E00000E94FD02C4E0D0E0812C912C40EAA42E77
:101E100040E4B42E8092760490927704A0927804E5
:101E2000B0927904C12CD12C98ECE92E92ECF92EC9
:101E300000E010E0980140E050E068EB72E490E0D0
:101E400080E00E941A0400E010E0980140E050E0B9
:101E500068EB72E482E090E00E941A040E94FD02A6
:101E600000E010E0980140E050E060E572E490E0AE
:101E700080E00E941A0400E010E0980140E050E089
:101E800060E572E482E090E00E941A040E94FD0284
:101E9000219709F0BFCFC12CD12C84EBE82E82EC26
:101EA000F82E00E010E0980140E050E068E772E4AE
:101EB00090E080E00E941A0400E010E0980140E009
:101EC00050E068E772E482E090E00E941A04DF913B
:101ED000CF911F910F91FF90EF90DF90CF90BF9027
:101EE000AF909F908F900C94FD022F923F924F9253
:101EF0005F926F927F928F929F92AF92BF92CF929A
:101F0000DF92EF92FF920F931F93CF93DF938FE3B4
:101F100091E00E940C040E94B5070E94FD02F4E0CB
:101F20002F2E312C412C512C612CA1E47A2E812CA6
:101F3000912CB0E2AB2EB1E4BB2E409276045092CD
:101F400077046092780470927904D0E0C0E0C12CEC
:101F5000D12CE8E4EE2EE2ECFE2E00E010E020EFC3
:101F600031E440E050E068E772E4CE010E941A04D8
:101F70002196C430D10559F70E94FD028092760463
:101F800090927704A0927804B0927904C12CD12C5D
:101F900080EFE82E81ECF82E00E010E020EF31E435
:101FA00040E050E068E772E490E080E00E941A04AC
:101FB0000E94FD02C12CD12C98E4E92E92ECF92E5E
:101FC00000E010E0980140E050E068E772E490E043
:101FD00080E00E941A040E94FD02C12CD12C20EF47
:101FE000E22E21ECF22E00E010E020EF31E440E0A0
:101FF00050E068E772E483E090E00E941A040E94D7
:10200000FD02C12CD12C38E4E32E32ECF32E00E09B
:1020100010E0980140E050E068E772E483E090E06F
:102020000E941A040E94FD02C12CD12C40EFE42E24
:1020300041ECF42E00E010E020EF31E440E050E00D
:1020400068E772E481E090E00E941A040E94FD02B9
:10205000C12CD12C58E4E52E52ECF52E00E010E016
:10206000980140E050E068E772E481E090E00E946F
:102070001A040E94FD02C12CD12C60EFE62E61EC07
:10208000F62E00E010E020EF31E440E050E068E799
:1020900072E482E090E00E941A040E94FD02C12CCA
:1020A000D12C78E4E72E72ECF72E00E010E09801D6
:1020B00040E050E068E772E482E090E00E941A0499
:1020C0000E94FD0281E0281A310809F036CFDF9125
:1020D000CF911F910F91FF90EF90DF90CF90BF9025
:1020E000AF909F908F907F906F905F904F903F90B8
:1020F0002F900C94B5074F925F926F927F928F92C0
:102100009F92AF92BF92CF92DF92EF92FF920F9386
:102110001F93CF93DF938EE491E00E940C040E9402
:10212000B5070E94FD0280E090E0A0E8B0E4809353
:10213000760490937704A0937804B0937904D0E068
:10214000C0E0BE010D2E000C880B990B0E94F527F4
:102150002B013C0120E030E048E752E40E94682671
:102160004B015C01C12CD12C28E4E22E22ECF22E92
:1021700000E010E09801BC01A40190E080E00E9422
:102180001A04A301920160E070E088E792E40E94E3
:1021900067262B013C0100E010E09801BC01A20180
:1021A00081E090E00E941A0400E010E09801B30181
:1021B000A20182E090E00E941A0400E010E0980181
:1021C000B501A40183E090E00E941A040E94FD0280
:1021D0006AE070E080E090E00E9442012296C03206
:1021E000D10509F0AECF68EC70E080E090E00E948D
:1021F0004201CEE1D0E0BE010D2E000C880B990B00
:102200000E94F5272B013C0120E030E048E752E432
:102210000E9468264B015C01C12CD12C98E4E92E68
:1022200092ECF92E00E010E09801B501A40190E0D5
:1022300080E00E941A04A301920160E070E088E748
:1022400092E40E9467262B013C0100E010E0980117
:10225000BC01A20181E090E00E941A0400E010E0BD
:102260009801B301A20182E090E00E941A0400E00C
:1022700010E09801B501A40183E090E00E941A04E7
:102280000E94FD026AE070E080E090E00E9442015E
:102290002297C03E8FEFD80709F0ADCF68EC70E011
:1022A00080E090E00E944201C2EEDFEFBE010D2E01
:1022B000000C880B990B0E94F5272B013C0120E0B4
:1022C00030E048E752E40E9468264B015C01C12CD3
:1022D000D12C88E4E82E82ECF82E00E010E0980182
:1022E000B501A40190E080E00E941A04A3019201CC
:1022F00060E070E088E792E40E9467262B013C01D1
:1023000000E010E09801BC01A20181E090E00E9491
:102310001A0400E010E09801B301A20182E090E00D
:102320000E941A0400E010E09801B501A40183E0C6
:1023300090E00E941A040E94FD026AE070E080E0D2
:1023400090E00E9442012296C230D10509F0AECF42
:10235000DF91CF911F910F91FF90EF90DF90CF9081
:10236000BF90AF909F908F907F906F905F904F90B5
:102370000C94B5071092AD041092AC0488EE93E073
:10238000A0E0B0E08093AE049093AF04A093B004BB
:10239000B093B10480E291E09093AB048093AA04DF
:1023A00085EC90E09093B7048093B60484EC90E0C1
:1023B0009093B9048093B80480EC90E09093BB04B0
:1023C0008093BA0481EC90E09093BD048093BC04A8
:1023D00082EC90E09093BF048093BE0486EC90E082
:1023E0009093C1048093C0041092C3041092C4045B
:1023F0001092C5041092C6042CE635E04FEF68EB4E
:102400007BE0F901275F3F4F80916B058C30D0F462
:1024100091E0980F90936B05808390E0DC01AA0F08
:10242000BB1FA80FB91FA95BBA4F12967C936E937E
:10243000119733962E173F0739F785E02039380773
:1024400001F708954083F5CF789484B5826084BD08
:1024500084B5816084BD85B5826085BD85B58160A8
:1024600085BD80916E00816080936E001092810026
:1024700080918100826080938100809181008160E1
:1024800080938100809180008160809380008091A2
:10249000B10084608093B1008091B000816080932E
:1024A000B00080917A00846080937A0080917A00F5
:1024B000826080937A0080917A00816080937A00B4
:1024C00080917A00806880937A001092C100E09138
:1024D000BA04F091BB0482E08083E091B604F091ED
:1024E000B7041082E091B804F091B9048FEC8083B6
:1024F0001092C204E091BE04F091BF0486E0808394
:10250000E091BC04F091BD04808180618083E09102
:10251000BC04F091BD04808188608083E091BC049C
:10252000F091BD04808180688083E091BC04F091CB
:10253000BD0480818F7D808386E691E00E940C043B
:102540008EE00E94B200C12CD12C50EEE52E51EC51
:10255000F52E00E010E020E232E440E050E068E7D1
:1025600072E490E080E00E941A0400E010E020E2B3
:1025700032E440E050E068E772E481E090E00E94DD
:102580001A0400E010E0980140E050E068E772E4CF
:1025900082E090E00E941A0400E010E0980140E020
:1025A00050E068E772E483E090E00E941A0490E053
:1025B00080E02CE0289FF001299FF00D1124DF011D
:1025C000A45CBB4F4D915D916D917C911397E65842
:1025D000FB4F408351836283738314964D915D91C9
:1025E0006D917C9117974483558366837783189602
:1025F0004D915D916D917C911B97408751876287CA
:102600007387019684309105A9F684E190E0A0E0FB
:10261000B0E08093310490933204A0933304B093DC
:1026200034048AE19AE09093300480932F048091DF
:1026300070008E7F809370008091B0008C7F8093BB
:10264000B0008091B100877F8093B1008091B60087
:102650008F7D8093B600809170008D7F8093700095
:102660008091B10084608093B1008091B1008C7F33
:102670008093B10086E090E0909336048093350417
:10268000109238041092390410923A0410923B04CC
:102690001092370480913504909136048093B200F3
:1026A0008091700081608093700082E891E00E94C8
:1026B0000C040E946A0388E991E00E940C048BEAF2
:1026C00091E00E940C04412C512C30E4632E762CB6
:1026D000812C912CA12C41E4B42E8AEA94E00E9432
:1026E000D2011816190614F00C94E3258AEA94E036
:1026F0000E94B00180936C04682F8AEA94E00E94E3
:1027000014028FE291E00E94FF0380916C048634F2
:1027100009F06CC189EC91E00E940C04809276046F
:1027200090927704A0927804B09279046091960414
:1027300070919704809198049091990420E030E082
:10274000A9010E944627C12CD12C20EFE22E21ECBA
:10275000F22E00E010E0980140E050E068E772E4FB
:1027600081119AC082E090E00E941A040E94FD024A
:1027700000E010E020EA32E440E050E068E772E474
:1027800082E090E00E941A040E94FD02C12CD12C2C
:1027900008E4E02E02ECF02E00E010E020EA32E443
:1027A00040E050E068E772E482E090E00E941A04A2
:1027B0000E94FD0240927604509277046092780461
:1027C0007092790400E010E0980140E050E068E782
:1027D00072E490E080E00E941A0400E010E020EA39
:1027E00032E440E050E068E772E481E090E00E946B
:1027F0001A0400E010E020E232E440E050E068E734
:1028000072E482E090E00E941A0400E010E020E20E
:1028100032E440E050E068E772E483E090E00E9438
:102820001A040E94FD028092760490927704A0928E
:102830007804B0927904C12CD12C80EFE82E81EC81
:10284000F82E00E010E020EA32E440E050E068E7D3
:1028500072E481E090E00E941A040E94FD0200E010
:1028600010E0980140E050E068E772E481E090E019
:102870000E941A040E94FD02C12CD12C98E4E92E7A
:1028800092ECF92E00E010E0980140E050E068E79B
:1028900072E481E090E099C090E080E00E941A0428
:1028A0000E94FD0200E010E020EA32E440E050E047
:1028B00068E772E490E080E00E941A040E94FD0242
:1028C000C12CD12CD8E4ED2ED2ECFD2E00E010E08E
:1028D00020EA32E440E050E068E772E490E080E013
:1028E0000E941A040E94FD024092760450927704DE
:1028F000609278047092790400E010E020E232E403
:1029000040E050E068E772E490E080E00E941A0442
:1029100000E010E020E232E440E050E068E772E4DA
:1029200081E090E00E941A0400E010E0980140E08D
:1029300050E068E772E482E090E00E941A0400E050
:1029400010E020EA32E440E050E068E772E483E01F
:1029500090E00E941A040E94FD02809276049092F8
:102960007704A0927804B0927904C12CD12C10EF96
:10297000E12E11ECF12E00E010E020EA32E440E01C
:1029800050E068E772E483E090E00E941A040E943D
:10299000FD0200E010E0980140E050E068E772E4DA
:1029A00083E090E00E941A040E94FD02C12CD12C09
:1029B000C8E4EC2EC2ECFC2E00E010E0980140E0F0
:1029C00050E068E772E483E090E00E941A040E94FD
:1029D000FD028AEA94E00E94D201892B11F40C9442
:1029E000E3258AEA94E00E94B001F3CF823409F033
:1029F0005CC186ED91E00E940C0480927604909276
:102A00007704A0927804B09279046091A204709146
:102A1000A3048091A4049091A50420E030E0A901D2
:102A20000E944627C12CD12CB0EFEB2EB1ECFB2E2F
:102A300000E010E0980140E050E068E772E48111A6
:102A40009AC083E090E00E941A040E94FD0200E018
:102A500010E020EA32E440E050E068E772E483E00E
:102A600090E00E941A040E94FD02C12CD12CE8E4DF
:102A7000EE2EE2ECFE2E00E010E020EA32E440E030
:102A800050E068E772E483E090E00E941A040E943C
:102A9000FD0240927604509277046092780470921E
:102AA000790400E010E020EA32E440E050E068E71A
:102AB00072E490E080E00E941A0400E010E09801C7
:102AC00040E050E068E772E481E090E00E941A0480
:102AD00000E010E020E232E440E050E068E772E419
:102AE00082E090E00E941A0400E010E020E232E46C
:102AF00040E050E068E772E483E090E00E941A044E
:102B00000E94FD028092760490927704A09278044D
:102B1000B0927904C12CD12CF0EFEF2EF1ECFF2E06
:102B200000E010E020EA32E440E050E068E772E4C0
:102B300090E080E00E941A040E94FD0200E010E094
:102B4000980140E050E068E772E490E080E00E9485
:102B50001A040E94FD02C12CD12CA8E4EA2EA2EC9A
:102B6000FA2E00E010E0980140E050E068E772E4DF
:102B700090E080E02ACF81E090E00E941A040E9459
:102B8000FD0200E010E020EA32E440E050E068E7B7
:102B900072E481E090E00E941A040E94FD02C12CC0
:102BA000D12C58E4E52E52ECF52E00E010E020EA9E
:102BB00032E440E050E068E772E481E090E00E9497
:102BC0001A040E94FD0240927604509277046092AB
:102BD00078047092790400E010E020E232E440E0F2
:102BE00050E068E772E490E080E00E941A0400E0A0
:102BF00010E020E232E440E050E068E772E481E077
:102C000090E00E941A0400E010E020EA32E440E084
:102C100050E068E772E482E090E00E941A0400E06D
:102C200010E0980140E050E068E772E483E090E053
:102C30000E941A040E94FD0280927604909277040A
:102C4000A0927804B0927904C12CD12C60EFE62ECA
:102C500061ECF62E00E010E020EA32E440E050E0C3
:102C600068E772E482E090E00E941A040E94FD028C
:102C700000E010E0980140E050E068E772E482E094
:102C800090E00E941A040E94FD02C12CD12C78E42D
:102C9000E72E72ECF72E00E010E0980140E050E0E3
:102CA00068E772E482E090E090CE8C3409F0E2C1F3
:102CB00080EE91E00E940C0480E090E0A0E8B0E497
:102CC0008093760490937704A0937804B09379046A
:102CD0006091A2047091A3048091A4049091A50432
:102CE00020E030E0A9010E944627C12CD12C40EF02
:102CF000E42E41ECF42E00E010E0980140E050E0BA
:102D000068E772E48111E1C083E090E00E941A0458
:102D10000E94FD02C12CD12CD8E4ED2ED2ECFD2E68
:102D200000E010E020EA31E44FE65FE060E872E4A2
:102D300090E080E00E941A0408E11EEA23E632E4F3
:102D400045E150EC66E072E481E090E00E941A04F4
:102D500000E010E020EA31E44FE65FE060E872E472
:102D600082E090E00E941A04C12CD12C10EFE12ED9
:102D700011ECF12E08E11EEA23E632E445E150ECC5
:102D800066E072E483E090E00E941A040E94FD0273
:102D9000C12CD12C08E4E02E02ECF02E08E11EEA52
:102DA00023E632E445E150EC66E072E483E090E033
:102DB0000E941A040E94FD0200E010E020EA31E4C3
:102DC0004FE65FE060E872E490E080E00E941A0461
:102DD00008E11EEA23E632E445E150EC66E072E4E5
:102DE00081E090E00E941A0400E010E020EA31E463
:102DF0004FE65FE060E872E482E090E00E941A042F
:102E000008E11EEA23E632E445E150EC66E072E4B4
:102E100083E090E00E941A040E94FD02C12CD12C94
:102E200080EFE82E81ECF82E08E11EEA23E632E47A
:102E300045E150EC66E072E481E090E00E941A0403
:102E40000E94FD02C12CD12C98E4E92E92ECF92EBF
:102E500000E010E0980140E050E068E772E490E0A4
:102E600080E00E941A04C12CD12C20EFE22E21EC2C
:102E7000F22E00E010E0980140E050E068E772E4D4
:102E800081E090E00E941A04C12CD12C38E4E32E9A
:102E900032ECF32E00E010E020E232E440E050E0BB
:102EA00068E772E482E090E00E941A0400E010E01B
:102EB00020E232E440E050E068E772E483E090E032
:102EC0000E941A040E94FD02DDCC90E080E00E9486
:102ED0001A040E94FD0208E11EEA23E632E445E1FD
:102EE00050EC66E072E490E080E00E941A04C12C8D
:102EF000D12CE8E4EE2EE2ECFE2E00E010E020EA19
:102F000031E44FE65FE060E872E481E090E00E9427
:102F10001A0408E11EEA23E632E445E150EC66E0DB
:102F200072E482E090E00E941A0400E010E020EADF
:102F300031E44FE65FE060E872E483E090E00E94F5
:102F40001A040E94FD0208E11EEA23E632E445E18C
:102F500050EC66E072E490E080E00E941A040E9467
:102F6000FD0208E11EEA23E632E445E150EC66E0AA
:102F700072E490E080E00E941A0400E010E020EA91
:102F800031E44FE65FE060E872E481E090E00E94A7
:102F90001A0408E11EEA23E632E445E150EC66E05B
:102FA00072E482E090E00E941A0400E010E020EA5F
:102FB00031E44FE65FE060E872E483E090E00E9475
:102FC0001A040E94FD02C12CD12CF0EFEF2EF1EC7F
:102FD000FF2E08E11EEA23E632E445E150EC66E00C
:102FE00072E482E090E00E941A040E94FD02C12C6B
:102FF000D12CA8E4EA2EA2ECFA2E00E010E020E2A8
:1030000032E440E050E068E772E490E080E00E9443
:103010001A0400E010E020E232E440E050E068E70B
:1030200072E481E090E00E941A04C12CD12CB0EF30
:10303000EB2EB1ECFB2E00E010E0980140E050E0F8
:1030400068E772E482E090E00E941A04C12CD12C5F
:10305000C8E4EC2EC2ECFC2E00E010E0980140E049
:1030600050E068E772E483E090E00E941A040E9456
:10307000FD0211CE823509F0CFC18AEE91E00E94A7
:103080000C0480E090E0A0E8B0E480937604909394
:103090007704A0937804B0937904609196047091BA
:1030A0009704809198049091990420E030E0A90160
:1030B0000E944627C12CD12C70EFE72E71ECF72E21
:1030C00000E010E0980140E050E068E772E4811110
:1030D000D5C082E090E00E941A040E94FD02C12C3B
:1030E000D12C28E4E22E22ECF22E08E11EEA23E69F
:1030F00032E445E150EC66E072E490E080E00E944A
:103100001A0400E010E020EA31E44FE65FE060E8F6
:1031100072E481E090E00E941A04C12CD12C30EFBF
:10312000E32E31ECF32E08E11EEA23E632E445E11A
:1031300050EC66E072E482E090E00E941A04C12C38
:10314000D12C48E4E42E42ECF42E00E010E020EA1A
:1031500031E44FE65FE060E872E483E090E00E94D3
:103160001A040E94FD0208E11EEA23E632E445E16A
:1031700050EC66E072E482E090E00E941A040E9443
:10318000FD0208E11EEA23E632E445E150EC66E088
:1031900072E490E080E00E941A0400E010E020EA6F
:1031A00031E44FE65FE060E872E481E090E00E9485
:1031B0001A0408E11EEA23E632E445E150EC66E039
:1031C00072E482E090E00E941A0400E010E020EA3D
:1031D00031E44FE65FE060E872E483E090E00E9453
:1031E0001A040E94FD02C12CD12C50EFE52E51ECA7
:1031F000F52E08E11EEA23E632E445E150EC66E0F4
:1032000072E490E080E00E941A040E94FD0200E057
:1032100010E0980140E050E068E772E490E080E060
:103220000E941A04C12CD12C68E4E62E62ECF62E22
:1032300000E010E0980140E050E068E772E481E0CF
:1032400090E00E941A0400E010E020E232E440E046
:1032500050E068E772E482E090E00E941A0400E027
:1032600010E020E232E440E050E068E772E483E0FE
:1032700090E00E941A040E94FD0273CC81E090E06D
:103280000E941A040E94FD02C12CD12CC8E4EC2E2D
:10329000C2ECFC2E00E010E020EA31E44FE65FE0F3
:1032A00060E872E490E080E00E941A04C12CD12C06
:1032B000D0EFED2ED1ECFD2E08E11EEA23E632E43C
:1032C00045E150EC66E072E481E090E00E941A046F
:1032D000C12CD12C18E4E12E12ECF12E00E010E00C
:1032E00020EA31E44FE65FE060E872E482E090E0DB
:1032F0000E941A0408E11EEA23E632E445E150EC9C
:1033000066E072E483E090E00E941A040E94FD02ED
:1033100008E11EEA23E632E445E150EC66E072E49F
:1033200081E090E00E941A040E94FD0200E010E09B
:1033300020EA31E44FE65FE060E872E490E080E08C
:103340000E941A0408E11EEA23E632E445E150EC4B
:1033500066E072E481E090E00E941A0400E010E070
:1033600020EA31E44FE65FE060E872E482E090E05A
:103370000E941A0408E11EEA23E632E445E150EC1B
:1033800066E072E483E090E00E941A040E94FD026D
:10339000C12CD12C00EFE02E01ECF02E08E11EEA4A
:1033A00023E632E445E150EC66E072E483E090E02D
:1033B0000E941A040E94FD02C12CD12C88E4E82E40
:1033C00082ECF82E00E010E020E232E440E050E031
:1033D00068E772E490E080E00E941A0400E010E0E8
:1033E00020E232E440E050E068E772E481E090E0FF
:1033F0000E941A0400E010E0980140E050E068E705
:1034000072E482E090E00E941A04C12CD12C90EF6B
:10341000E92E91ECF92EBDCA883539F485EF91E09B
:103420000E940C040E94B507D4CA883739F48BEF88
:1034300091E00E940C040E94E807CBCA8E3609F086
:1034400069C08FEF91E00E940C040E94B5070E94B2
:10345000FD0264EF71E080E090E00E944201B3E081
:103460002B2E312C80E090E0A0E8BFE3809376041F
:1034700090937704A0937804B0937904D0E0C0E0EF
:10348000C12CD12CA0E7EA2EA1ECFA2E00E010E02E
:103490002FE733E4B901A801CE010E941A04219656
:1034A000C430D10569F70E94FD0268EC70E080E04D
:1034B00090E00E944201409276045092770460921C
:1034C000780470927904D0E0C0E0C12CD12CF8E4EB
:1034D000EF2EF2ECFF2E00E010E02FE733E4B9010D
:1034E000A801CE010E941A042196C430D10569F7C3
:1034F0000E94FD026CE271E080E090E00E944201D7
:1035000091E0291A310809F0ADCF82E192E00E94E2
:103510000C045FCA873509F05AC084E292E00E9429
:103520000C0480E090E0A0E0B0E4809376049093F7
:103530007704A0937804B09379040E94E807D0E060
:10354000C0E0C12CD12CE0EEEE2EE1ECFE2E00E02E
:1035500010E0980140E050E068E272E4CE010E9481
:103560001A042196C430D10561F70E94FD0264EF70
:1035700071E080E090E00E944201CCE6D5E08E014F
:10358000312C212CD801EC918E2F90E0FC01EE0F14
:10359000FF1FE80FF91FE95BFA4F80818F7B808363
:1035A00064E670E080E090E00E944201BFEF2B1AD9
:1035B0003B0A0D5F1F4F23E02216310419F72996AD
:1035C00085E0C039D807D9F68CE392E0A0CF8737E1
:1035D00009F05FC084E592E00E940C040E946A0337
:1035E00068EC70E080E090E00E94420180E090E0B2
:1035F000A0E8BFE38093760490937704A0937804C7
:10360000B0937904D0E0C0E0C12CD12C60EEE62E5E
:1036100061ECF62E00E010E0980140E050E068E731
:1036200072E4CE010E941A042196C430D10561F7DC
:1036300090E080E0ACE0A89FF001A99FF00D11247C
:10364000DF01A45CBB4F4D915D916D917C9113970F
:10365000E658FB4F408351836283738314964D91E8
:103660005D916D917C911797448355836683778331
:1036700018964D915D916D917C911B974087518774
:1036800062877387019684309105A1F680E792E006
:103690003ECF982F9F7D963539F48AE892E00E94BC
:1036A0000C040E94670695C9953539F484E992E0C7
:1036B0000E940C040E941B088CC9813369F480E0CD
:1036C00090E0A0E0BFE38093000190930101A093FC
:1036D0000201B09303017DC9823329F480E090E0B8
:1036E000A0E8BFE3F0CF833329F480E090E0A0E0CE
:1036F000B0E4E9CF833609F083C080E090E0A0E039
:10370000B0E48093760490937704A0937804B09308
:103710007904C12CD12C58E4E52E52ECF52E00E0B2
:1037200010E028EC31E440E050E068E772E490E01B
:1037300080E00E941A0400E010E028EC31EC40E048
:1037400050E068E772E481E090E00E941A0400E033
:1037500010E028EC31EC40E050E068E772E482E0F1
:1037600090E00E941A0400E010E028EC31E440E010
:1037700050E068E772E483E090E00E941A040E943F
:10378000FD0260E971E080E090E00E94420100E00B
:1037900010E028EC31EC40E050E068E772E490E0A3
:1037A00080E00E941A0400E010E028EC31E440E0E0
:1037B00050E068E772E481E090E00E941A0400E0C3
:1037C00010E028EC31E440E050E068E772E482E089
:1037D00090E00E941A0400E010E028EC31EC40E098
:1037E00050E068E772E483E090E00E941A040E94CF
:1037F000FD0260E971E080E090E00E94420112CE9B
:103800008F3609F0AFC080E090E0A0E8BFE380937E
:10381000760490937704A0937804B0937904C12C34
:10382000D12C0CE0E02E02ECF02E00E010E02FE7AF
:1038300033E4B901A80190E080E00E941A0400E09E
:1038400010E02FE733E4B901A80182E090E00E9484
:103850001A04C12CD12C82E8E82E82ECF82E00E06C
:1038600010E02FE733E4B901A80181E090E00E9465
:103870001A0400E010E02FE733E4B901A80183E067
:1038800090E00E941A040E94FD02C12CD12C9CE001
:10389000E92E92ECF92E00E010E02FE733E4B901B5
:1038A000A80190E080E00E941A0400E010E02FE7F9
:1038B00033E4B901A80181E090E00E941A04C12C10
:1038C000D12C22E8E22E22ECF22E00E010E02FE7CD
:1038D00033E4B901A80182E090E00E941A0400E0FC
:1038E00010E02FE733E4B901A80183E090E00E94E3
:1038F0001A040E94FD02C12CD12C3CE0E32E32ECD4
:10390000F32E00E010E02FE733E4B901A80181E0D5
:1039100090E00E941A0400E010E02FE733E4B901C0
:10392000A80183E090E00E941A04C12CD12C42E847
:10393000E42E42ECF42E00E010E02FE733E4B9016E
:10394000A80190E080E00E941A0400E010E02FE758
:1039500033E4B901A80182E090E00E941A040E94B9
:10396000FD0260CD893709F078C080E090E0A0E8E2
:10397000B0E48093760490937704A0937804B09396
:103980007904C3E0D0E0C12CD12C18E4E12E12EC74
:10399000F12E00E010E028EC31E440E050E06FE769
:1039A00073E490E080E00E941A0400E010E028EC4C
:1039B00031EC40E050E06FE773E482E090E00E9479
:1039C0001A0400E010E0980140E050E06FE773E473
:1039D00081E090E00E941A0400E010E0980140E0CD
:1039E00050E06FE773E483E090E00E941A040E94C5
:1039F000FD0200E010E028EC31EC40E050E06FE721
:103A000073E490E080E00E941A0400E010E028ECEB
:103A100031E440E050E06FE773E482E090E00E9420
:103A20001A0400E010E0980140E050E06FE773E412
:103A300081E090E00E941A0400E010E0980140E06C
:103A400050E06FE773E483E090E00E941A040E9464
:103A5000FD02219709F097CFE5CC823609F03FC0EF
:103A60008FE992E00E940C0480E090E0A0ECB0E4CA
:103A70008093760490937704A0937804B0937904AC
:103A8000C12CD12CB0EAEB2EB2ECFB2E00E010E002
:103A9000980140E050E068E772E490E080E00E9426
:103AA0001A0400E010E0980140E050E068E772E49A
:103AB00082E090E00E941A04C12CD12CC0EFEC2EC1
:103AC000C1ECFC2E00E010E0980140E050E068E717
:103AD00072E481E090E00E941A040C94DC148636B3
:103AE00009F0CCC085EB92E00E940C0480E090E0ED
:103AF000A0E8B0E48093760490937704A0937804D0
:103B0000B0937904C12CD12CF0EFEF2EF1ECFF2E05
:103B100000E010E0980140E050E068E772E490E0D7
:103B200080E00E941A0400E010E0980140E050E0BC
:103B300068E772E482E090E00E941A04C12CD12C64
:103B4000A0EAEA2EA2ECFA2E00E010E0980140E094
:103B500050E068E772E481E090E00E941A0400E01F
:103B600010E0980140E050E068E772E483E090E004
:103B70000E941A040E94FD028092760490927704BB
:103B8000A0927804B0927904CFE0D0E0C12CD12C7F
:103B900050EFE52E51ECF52E00E010E0980140E0EA
:103BA00050E068E672E490E080E00E941A0400E0D1
:103BB00010E0980140E050E068E672E482E090E0B6
:103BC0000E941A04C12CD12C60EAE62E62ECF62E7B
:103BD00000E010E0980140E050E068E672E481E027
:103BE00090E00E941A0400E010E0980140E050E0EC
:103BF00068E672E483E090E00E941A040E94FD02ED
:103C0000C12CD12C70EFE72E71ECF72E00E010E004
:103C1000980140E050E064E872E490E080E00E94A7
:103C20001A0400E010E0980140E050E064E872E41B
:103C300082E090E00E941A04C12CD12CE0EAEE2E22
:103C4000E2ECFE2E00E010E0980140E050E064E875
:103C500072E481E090E00E941A0400E010E0980114
:103C600040E050E064E872E483E090E00E941A04CF
:103C70000E94FD02219709F089CFD4CB813609F04B
:103C80009EC08AEC92E00E940C0480E090E0A0EAE2
:103C9000B0E48093760490937704A0937804B09373
:103CA0007904C12CD12C30EFE32E31ECF32E00E05F
:103CB00010E0980140E050E068E772E481E090E0B5
:103CC0000E941A0400E010E0980140E050E068E72C
:103CD00072E483E090E00E941A04C12CD12C4CE8DD
:103CE000E42E42ECF42E00E010E020E731E440E066
:103CF00050E06AE972E490E080E00E941A0400E07B
:103D000010E020E731E440E050E06AE972E482E04C
:103D100090E00E941A040E94FD0268EC70E080E0CE
:103D200090E00E9442018092760490927704A092E3
:103D30007804B0927904C3E0D0E0C12CD12C90E299
:103D4000E92E92ECF92E00E010E0980140E050E0FE
:103D50006EEA72E490E080E00E941A0400E010E055
:103D6000980140E050E06EEA72E482E090E00E9448
:103D70001A040E94FD02C12CD12C2CE8E22E22EC68
:103D8000F22E00E010E020E731E440E050E06AE984
:103D900072E490E080E00E941A0400E010E020E766
:103DA00031E440E050E06AE972E482E090E00E9491
:103DB0001A040E94FD02219709F0BFCF33CB81374F
:103DC00009F05BC081EE92E00E940C0480E090E07C
:103DD000A0E0B0E48093760490937704A0937804F5
:103DE000B0937904D0E0C0E0C12CD12C80EEE82E55
:103DF00081ECF82E00E010E0980140E050E068E728
:103E000072E4CE010E941A042196C430D10561F7F4
:103E10000E94FD0264E670E080E090E00E944201B2
:103E20008092760490927704A0927804B0927904FC
:103E3000D0E0C0E0C12CD12C02E8E02E02ECF02E44
:103E400000E010E0980140E050E068E772E4CE0145
:103E50000E941A042196C430D10561F70E94FD0228
:103E600080E090E0A0E8B0E480937604909377043B
:103E7000A0937804B0937904D5CA843609F068C059
:103E800081EF92E00E940C0480E090E0A0E0B0E4BA
:103E90008093760490937704A0937804B093790488
:103EA000D0E0C0E0C12CD12C10EEE12E11ECF12EAF
:103EB00000E010E0980140E050E068E772E4CE01D5
:103EC0000E941A042196C430D10561F70E94FD02B8
:103ED00080E090E0A0E8BFE38093760490937704BD
:103EE000A0937804B093790400E010E020EF31E46F
:103EF00040E050E068EB72E490E080E00E941A0439
:103F000000E010E020EF31E440E050E068EB72E4C4
:103F100083E090E00E941A04C12CD12CD8E1ED2E50
:103F2000D2ECFD2E00E010E020EF31E440E050E064
:103F300068EB72E481E090E00E941A0400E010E077
:103F400020EF31E440E050E068EB72E40C9452164C
:103F50008D3621F40E94750F0C94E914803709F016
:103F6000AEC081E193E00E940C044092760450922E
:103F700077046092780470927904C12CD12CB8E453
:103F8000EB2EB2ECFB2E00E010E020EA31E440E042
:103F900050E068E772E490E080E00E941A0400E0DC
:103FA00010E020EA31E440E050E068E772E481E0AC
:103FB00090E00E941A0400E010E020EA31E440E0C2
:103FC00050E068E772E482E090E00E941A0400E0AA
:103FD00010E0980140E050E068E772E483E090E090
:103FE0000E941A040E94FD0280E090E0A0E0B0E48C
:103FF0008093760490937704A0937804B093790427
:10400000C12CD12CC0E2EC2EC1ECFC2E00E010E063
:104010002CE832E440E050E068E772E483E090E0AE
:104020000E941A040E94FD0268EE73E080E090E0B6
:104030000E944201C3E0D0E0C12CD12CF0EAEF2E67
:10404000F0ECFF2E00E010E02CE832E440E050E01D
:1040500068E772E483E090E00E941A040E94FD0287
:10406000C12CD12CA0E7EA2EA1ECFA2E00E010E042
:104070002CE832E440E050E068E772E483E090E04E
:104080000E941A040E94FD022197B1F64092760424
:10409000509277046092780470927904C12CD12CEC
:1040A000E8E4EE2EE2ECFE2E00E010E020EA31E43F
:1040B00040E050E068E772E483E090E04ECC853663
:1040C00009F073C086E293E00E940C040E94B507D9
:1040D0000E94FD02C4E0D0E080E090E0A0E2B1E404
:1040E0008093760490937704A0937804B093790436
:1040F000C12CD12C48ECE42E42ECF42E00E010E070
:10410000980140E050E068E772E490E080E00E94AF
:104110001A040E94FD0262E370E080E090E00E94D9
:104120004201C12CD12C58E4E52E52ECF52E00E0D2
:1041300010E0980140E050E068E772E490E080E031
:104140000E941A040E94FD02C12CD12C68ECE62EBC
:1041500062ECF62E00E010E0980140E050E068E7E5
:1041600072E481E090E00E941A040E94FD0262E382
:1041700070E080E090E00E944201C12CD12C78E4F4
:10418000E72E72ECF72E00E010E0980140E050E0DE
:1041900068E772E481E090E00E941A040E94FD0248
:1041A000219709F099CF0C94E9148F3221F40E94E1
:1041B000AA0E0C94E9148B3609F04BC083E393E00C
:1041C0000E940C0440927604509277046092780426
:1041D00070927904C12CD12C20EAE22E21ECF22E2F
:1041E00000E010E0980140E050E068E772E490E001
:1041F00080E00E941A0400E010E0980140E050E0E6
:1042000068E772E483E090E00E941A04C12CD12C8C
:104210003CE8E32E32ECF32E00E010E0980140E0A1
:1042200050E068E772E481E090E00E941A0400E048
:1042300010E0980140E050E068E772E482E090E02E
:104240000E941A040E94FD026CED75E080E090E08F
:10425000D4CA843741F58DE393E00E940C0480E0DA
:1042600090E0A0E0B0E48093760490937704A0936C
:104270007804B0937904D0E0C0E0C12CD12C90EA4E
:10428000E92E91ECF92E00E010E0980140E050E0BA
:1042900068EB72E4CE010E941A042196C430D10565
:1042A00061F70C94E7148A3709F088C089E493E039
:1042B0000E940C040E94B5070E94FD0280927604C1
:1042C00090927704A0927804B0927904C3E0D0E091
:1042D000C12CD12C10EAE12E12ECF12E00E010E0FE
:1042E000980140E050E068E772E490E080E00E94CE
:1042F0001A04C12CD12C00EAE02E01ECF02E00E0D3
:1043000010E0980140E050E068E772E483E090E05C
:104310000E941A040E94FD0200E010E0980140E0B3
:1043200050E068E772E490E080E00E941A04C12C3B
:10433000D12C80EAE82E82ECF82E00E010E0980103
:1043400040E050E068E772E483E090E00E941A04E5
:104350000E94FD02219709F0BBCF40927604509253
:1043600077046092780470927904C12CD12CB0E269
:10437000EB2EB2ECFB2E00E010E0980140E050E0A4
:1043800068E772E490E080E00E941A04C12CD12C0E
:10439000C0E7EC2EC2ECFC2E00E010E0980140E0FB
:1043A00050E068E772E483E090E00E941A040E9403
:1043B000FD0264EF71E080E090E01FCA883609F0EA
:1043C00050C084E593E00E940C040E94B5070E944F
:1043D000FD028092760490927704A0927804B092C5
:1043E0007904C4E0D0E0C12CD12CA8E4EA2EA2ECE0
:1043F000FA2E00E010E020EA31EC40E050E068E7FF
:1044000072E481E090E00E941A0400E010E020EAEB
:1044100031EC40E050E068E772E482E090E00E9416
:104420001A040E94FD0200E010E020EA31E440E0BE
:1044300050E068E772E481E090E00E941A0400E036
:1044400010E020EA31E440E050E068E772E482E006
:1044500090E00E941A040E94FD02219721F60C941C
:10446000121A8A3609F043C082E693E00E940C04D7
:1044700040927604509277046092780470927904A6
:10448000C12CD12CE0EFEE2EE1ECFE2E00E010E08E
:10449000980140E050E068E772E490E080E00E941C
:1044A0001A0400E010E0980140E050E068E772E490
:1044B00083E090E00E941A04C12CD12CFCEDEF2E79
:1044C000F2ECFF2E00E010E020EF31E440E050E09D
:1044D00064EA72E481E090E00E941A0400E010E0D7
:1044E00020EF31E440E050E064EA72E4A7CE833785
:1044F00009F08DC085E793E00E940C044092760499
:10450000509277046092780470927904C12CD12C77
:1045100068E4E62E62ECF62E00E010E020E231E4E2
:1045200040E050E068E772E482E090E00E941A0404
:1045300000E010E020E231E440E050E068E772E49F
:1045400083E090E00E941A0400E010E0980140E04F
:1045500050E068E772E490E080E00E941A040E9454
:10456000FD02C12CD12C70EAE72E71ECF72E00E091
:1045700010E020EF31EC40E050E068E772E481E0C9
:1045800090E00E941A040E94FD0280E090E0A0E208
:10459000B1E48093760490937704A0937804B09369
:1045A0007904C6E0D0E0C12CD12C40EFE42E41ECE0
:1045B000F42E00E010E020E232EC40E050E068E74A
:1045C00072E481E090E00E941A040E94FD02C12C76
:1045D000D12C50E7E52E51ECF52E00E010E020EF55
:1045E00031EC40E050E068E772E481E090E00E9446
:1045F0001A040E94FD022197B1F64092760450926F
:10460000770460927804709279040C94121A8435BD
:1046100041F587E893E00E940C0480E090E0A0E080
:10462000B0E48093760490937704A0937804B093D9
:104630007904D0E0C0E0C12CD12C30E2E32E31EC83
:10464000F32E00E010E0980140E050E060E072E4FA
:10465000CE010E941A042196C430D10561F70C9452
:10466000E714803509F056C084E993E00E940C04F9
:104670000E94B5070E94FD0280E090E0A0E0B0E457
:104680008093760490937704A0937804B093790490
:10469000C12CD12C90EFE92E91ECF92E00E010E026
:1046A000980140E050E068E772E481E090E00E9409
:1046B0001A0400E010E0980140E050E068E772E47E
:1046C00083E090E00E941A040E94FD0200E010E0E6
:1046D000980140E050E068E772E483E090E00E94D7
:1046E0001A04C12CD12C24EBE22E22ECF22E00E095
:1046F00010E020E232E440E050E068E772E490E04D
:1047000080E00E941A040E94FD0268EB7BE080E0DA
:1047100090E073C8893409F06FC087EA93E00E9483
:104720000C040E94B5070E94FD02C12CD12C88E424
:10473000E82E82ECF82E00E010E020E231E440E0C8
:1047400050E068E772E482E090E00E941A0400E022
:1047500010E020E231E440E050E068E772E483E0FA
:1047600090E00E941A040E94FD02C4E0D0E0809212
:10477000760490927704A0927804B0927904C12CC8
:10478000D12C10EFE12E11ECF12E00E010E0980199
:1047900040E050E068E772E490E080E00E941A0494
:1047A0000E94FD0280E090E0A0E4B1E480937604F2
:1047B00090937704A0937804B0937904C12CD12C02
:1047C00008E4E02E02ECF02E00E010E0980140E05A
:1047D00050E068E772E490E080E00E941A040E94D2
:1047E000FD0264E670E080E090E00E9442012197C3
:1047F00009F0BDCF0C94121A8B3409F04FC08EEB28
:1048000093E00E940C040E94B5070E94FD024092B2
:104810007604509277046092780470927904C12CE7
:10482000D12CC0EAEC2EC2ECFC2E00E010E0980186
:1048300040E050E068E272E490E080E00E941A04F8
:104840000E94FD0264EF71E080E090E00E9442016E
:1048500080E090E0A0E0B0E4809376049093770449
:10486000A0937804B0937904C12CD12CD0E7ED2E1D
:10487000D2ECFD2E00E010E020E232E440E050E017
:1048800068E772E490E080E00E941A040E94FD0252
:1048900068EE73E080E090E00C94FD1B843409F036
:1048A000ABC084EC93E00E940C040E94B5070E9408
:1048B000FD024092760450927704609278047092E0
:1048C0007904C12CD12CA0EFEA2EA1ECFA2E00E045
:1048D00010E0980140E050E068E772E490E080E08A
:1048E0000E941A0400E010E0980140E050E068E700
:1048F00072E483E090E00E941A04C12CD12CB0E74E
:10490000EB2EB2ECFB2E00E010E0980140E050E00E
:1049100068E772E481E090E00E941A0400E010E091
:10492000980140E050E068E772E482E090E00E9485
:104930001A040E94FD0280E090E0A0E2B1E48093BE
:10494000760490937704A0937804B0937904C6E03A
:10495000D0E0C12CD12C60E7E62E62ECF62E00E010
:1049600010E020EF31E440E050E068E772E490E0CE
:1049700080E00E941A040E94FD02C12CD12C70EF2D
:10498000E72E71ECF72E00E010E0980140E050E0D7
:1049900068E772E490E080E00E941A040E94FD0241
:1049A000C12CD12CE0E7EE2EE2ECFE2E00E010E070
:1049B00020EF31E440E050E068E772E483E090E00B
:1049C0000E941A040E94FD02C12CD12CF0EFEF2EA0
:1049D000F1ECFF2E00E010E0980140E050E068E7C5
:1049E00072E483E090E00E941A040E94FD02219785
:1049F00009F0AFCF0C94121A873409F061C086ED2C
:104A000093E00E940C0440927604509277046092E6
:104A1000780470927904C12CD12C30EFE32E31EC64
:104A2000F32E00E010E0980140E050E068E772E407
:104A300081E090E00E941A0400E010E0980140E05C
:104A400050E068E772E482E090E00E941A040E945D
:104A5000FD02C12CD12C44EBE42E42ECF42E00E0FC
:104A600010E020E231E440E050E068E272E490E0DF
:104A700080E00E941A040E94FD0260ED77E080E071
:104A800090E00E94420180E090E0A0ECB0E48093CE
:104A9000760490937704A0937804B0937904C12CA2
:104AA000D12C58E4E52E52ECF52E00E010E09801F0
:104AB00040E050E068E772E490E080E00C94AD1CC8
:104AC000893509F078C084EE93E00E940C0440928E
:104AD0007604509277046092780470927904C12C25
:104AE000D12C80EEE82E81ECF82E00E010E0980149
:104AF00040E050E068E772E481E090E00E941A0430
:104B000000E010E0980140E050E068E772E482E0E5
:104B100090E00E941A04C12CD12C90E2E92E92EC74
:104B2000F92E00E010E0980140E050E068E772E400
:104B300090E080E00E941A0400E010E0980140E05C
:104B400050E068E772E483E090E00E941A040E945B
:104B5000FD0280E090E0A0E0B0E4809376049093C2
:104B60007704A0937804B0937904C12CD12C2CE85D
:104B7000E22E22ECF22E00E010E020EA31E440E0E8
:104B800050E060E072E490E080E00E941A0400E0EF
:104B900010E020EA31E440E050E060E072E483E0BD
:104BA00090E00E941A040E94FD0264EC79E080E02B
:104BB00090E00C94FD1B8D3411F00C94E9140E94CC
:104BC0007B100C94E914A0E0B0E0AB2B11F40C9432
:104BD0006D130E94DE01882311F40C946D130E9462
:104BE00000000C946D13052E97FB1EF400940E9498
:104BF0000A2657FD07D00E94252607FC03D04EF455
:104C00000C940A2650954095309521953F4F4F4F73
:104C10005F4F089590958095709561957F4F8F4F68
:104C20009F4F08950E944726A59F900DB49F900D19
:104C3000A49F800D911D11240895B7FF0C94122696
:104C40000E941226821B930B0895A1E21A2EAA1B22
:104C5000BB1BFD010DC0AA1FBB1FEE1FFF1FA2172C
:104C6000B307E407F50720F0A21BB30BE40BF50B29
:104C7000661F771F881F991F1A9469F760957095B2
:104C8000809590959B01AC01BD01CF010895A29F35
:104C9000B001B39FC001A39F700D811D1124911D10
:104CA000B29F700D811D1124911D08959F939F77D0
:104CB0000E9430280F90002042F49058A2EA2AED7A
:104CC0003FE049E450E40E947F260C94B2285058FB
:104CD000BB27AA270E947F260C94B2280E94A428F2
:104CE00038F00E94AB2820F039F49F3F19F426F4E5
:104CF0000C947A280EF4E095E7FB0C947428E92FC5
:104D00000E94C32858F3BA176207730784079507F0
:104D100020F079F4A6F50C94E5280EF4E0950B2E1E
:104D2000BA2FA02D0B01B90190010C01CA01A001FD
:104D30001124FF27591B99F0593F50F4503E68F158
:104D40001A16F040A22F232F342F4427585FF3CF99
:104D5000469537952795A795F0405395C9F77EF46A
:104D60001F16BA0B620B730B840BBAF09150A1F0B3
:104D7000FF0FBB1F661F771F881FC2F70EC0BA0F39
:104D8000621F731F841F48F4879577956795B795C1
:104D9000F7959E3F08F0B0CF9395880F08F09927BC
:104DA000EE0F9795879508950E94A42860F080E8FB
:104DB00091E009F49EEF0E94AB2828F040E851E012
:104DC00071F45EEF0CC00C947A280C94E528E92F5E
:104DD000E0780E94C32840F3092E052AB1F3261774
:104DE00037074807590738F00E2E07F8E02569F015
:104DF000E025E0640AC0EF6307F8009407FADB01DE
:104E0000B9019D01DC01CA01AD01EF930E94622747
:104E10000E94B2280E9417275F91552339F02BED8D
:104E20003FE049E450FD49EC0C9468260895DF9377
:104E3000DD27B92FBF7740E85FE31616170648074E
:104E40005B0718F4D92F0E94F1289F938F937F93CB
:104E50006F930E94AC29E8E6F0E00E947D280E9452
:104E6000B2282F913F914F915F910E940C29DD2331
:104E700051F09058A2EA2AED3FE049EC5FE3D07888
:104E80005D270E947F26DF910C94B2280E94502853
:104E900008F481E008950E945F270C94B2280E94D4
:104EA000AB2858F00E94A42840F029F45F3F29F075
:104EB0000C94742851110C94E6280C947A280E94C2
:104EC000C32868F39923B1F3552391F3951B550B30
:104ED000BB27AA2762177307840738F09F5F5F4FCD
:104EE000220F331F441FAA1FA9F335D00E2E3AF00C
:104EF000E0E832D091505040E695001CCAF72BD024
:104F0000FE2F29D0660F771F881FBB1F2617370774
:104F10004807AB07B0E809F0BB0B802DBF01FF27A6
:104F200093585F4F3AF09E3F510578F00C947428E7
:104F30000C94E6285F3FE4F3983ED4F3869577958A
:104F40006795B795F7959F5FC9F7880F911D96955F
:104F5000879597F90895E1E0660F771F881FBB1FBB
:104F6000621773078407BA0720F0621B730B840B68
:104F7000BA0BEE1F88F7E09508950E94C427689445
:104F8000B1110C94E62808950E94CB2888F09F5711
:104F900098F0B92F9927B751B0F0E1F0660F771F5D
:104FA000881F991F1AF0BA95C9F714C0B13091F053
:104FB0000E94E528B1E008950C94E528672F782F2A
:104FC0008827B85F39F0B93FCCF386957795679518
:104FD000B395D9F73EF490958095709561957F4F84
:104FE0008F4F9F4F0895E89409C097FB3EF490952A
:104FF0008095709561957F4F8F4F9F4F9923A9F0B2
:10500000F92F96E9BB279395F69587957795679540
:10501000B795F111F8CFFAF4BB0F11F460FF1BC084
:105020006F5F7F4F8F4F9F4F16C0882311F096E917
:1050300011C0772321F09EE8872F762F05C06623C5
:1050400071F096E8862F70E060E02AF09A95660F7E
:10505000771F881FDAF7880F9695879597F9089537
:10506000DF93CF931F930F938B01EC01E5E9F0E001
:105070000E947D280E94B2289801AE018B01EC01AC
:1050800060E070E080E89FE30E9467260E946C2940
:105090009801AE010F911F91CF91DF910C940C29D3
:1050A000990F0008550FAA0BE0E8FEEF1616170639
:1050B000E807F907C0F012161306E407F50798F0A1
:1050C000621B730B840B950B39F40A2661F0232BBA
:1050D000242B252B21F408950A2609F4A140A69536
:1050E0008FEF811D811D089597F99F6780E870E01B
:1050F00060E008959FEF80EC0895DF93CF931F93B6
:105100000F93FF92EF92DF927B018C01689406C0AF
:10511000DA2EEF010E940C29FE01E894A591259159
:10512000359145915591A6F3EF010E947F26FE012E
:105130009701A801DA9469F7DF90EF90FF900F9143
:105140001F91CF91DF91089500240A941616170637
:1051500018060906089500240A9412161306140668
:1051600005060895092E0394000C11F4882352F0CB
:10517000BB0F40F4BF2B11F460FF04C06F5F7F4F83
:105180008F4F9F4F089557FD9058440F551F59F06A
:105190005F3F71F04795880F97FB991F61F09F3F24
:1051A00079F087950895121613061406551FF2CF4D
:1051B0004695F1DF08C0161617061806991FF1CF9D
:1051C00086957105610508940895E894BB276627C4
:1051D0007727CB0197F908950E94502808F48FEFA4
:1051E00008959B01AC0160E070E080E89FE30C94BF
:1051F0004B270E940C290C94B2280E94A42838F056
:105200000E94AB2820F0952311F00C9474280C9484
:105210007A2811240C94E6280E94C32870F3959FE5
:10522000C1F3950F50E0551F629FF001729FBB279D
:10523000F00DB11D639FAA27F00DB11DAA1F649F39
:105240006627B00DA11D661F829F2227B00DA11DEC
:10525000621F739FB00DA11D621F839FA00D611D72
:10526000221F749F3327A00D611D231F849F600D93
:10527000211D822F762F6A2F11249F5750409AF0BC
:10528000F1F088234AF0EE0FFF1FBB1F661F771F48
:10529000881F91505040A9F79E3F510580F00C9413
:1052A00074280C94E6285F3FE4F3983ED4F3869587
:1052B00077956795B795F795E7959F5FC1F7FE2BB3
:1052C000880F911D9695879597F9089519F416F40E
:1052D0000C947A280C94B0290E94CB28B8F3992317
:1052E000C9F3B6F39F57550B87FF0E94BE290024D0
:1052F000A0E640EA900180585695979528F4805C86
:10530000660F771F881F20F026173707480730F4ED
:10531000621B730B840B202931294A2BA695179405
:105320000794202531254A2758F7660F771F881FD5
:1053300020F026173707480730F4620B730B840BF5
:10534000200D311D411DA09581F7B901842F915881
:10535000880F9695879508959B01AC010C94F928C8
:105360009F3F31F0915020F4879577956795B795D9
:10537000880F911D9695879597F908959150504003
:10538000660F771F881FD2F70895991B79E004C034
:10539000991F961708F0961B881F7A95C9F7809574
:1053A0000895EE0FFF1F0590F491E02D0994F894F5
:1053B000FFCF0000803F020003000400050006004C
:1053C0000700080009000A000B000C000D00000097
:1053D000000014027401A1016102D201B001C401F4
:1053E0000D0A00507570707920576176652E2E2E4B
:1053F000004D6F6F6E77616C6B696E672E2E2E009D
:105400005261646172205363616E20496E697469F0
:10541000617465642E2E2E00526F626F7420737457
:105420006172747320696E697469616C697A617400
:10543000696F6E00536572766F207365727669636B
:1054400065207374617274656400536572766F735E
:1054500020696E697469616C697A656400526F6273
:105460006F7420696E697469616C697A6174696FBF
:105470006E20436F6D706C657465005374657020A9
:10548000666F727761726400537465702062616345
:105490006B005475726E206C656674005475726E84
:1054A000207269676874005374616E640053697494
:1054B00000507573687570732073746172746564DD
:1054C0002E2E2E005075736875707320636F6D708B
:1054D0006C6574652E00526F626F7420676F696E21
:1054E0006720746F20736C6565702E2E2E005A7ABB
:1054F0007A2E2E2E20536572766F73206465746148
:10550000636865642E0053797374656D2057616B11
:10551000652D757020496E697469617465642E2EFD
:105520002E00526F626F74206973204177616B6542
:1055300020616E642052656164792E0048616E645A
:10554000207761766500426F64792064616E6365DF
:1055500000536361726564212052656172696E67F0
:105560002075702E2E2E00536869766572696E67FD
:1055700020696E20666561722E2E2E00466967686E
:1055800074696E67204D6F64653A2041747461637D
:105590006B2100486170707921204A756D70696EC9
:1055A00067210053797374656D204661696C75726B
:1055B000652E2E2E20506C6179696E6720446561DE
:1055C000642E004D61726B696E672054657272695A
:1055D000746F72792E2E2E00416E6772792053748B
:1055E0006F6D702100426F77696E672E2E2E00530B
:1055F0006E65616B696E672E2E2E0049276D204403
:10560000697A7A79210048617070792057696767F3
:105610006C652100446F696E6720612048616E648B
:105620007374616E64210053637261746368696EA0
:1056300067204561722E2E2E00546970746F656963
:105640006E672E2E2E0057696C6C20796F75206D59
:1056500061727279206D653F0057616974696E6788
:105660002E2E2E202A5461707320466F6F742A00EC
:105670004D776168210044696767696E6720612022
:10568000686F6C652E2E2E005369722C205965733D
:1056900020536972210049276D205368792E2E2EE0
:0256A000000008
:107E0000112484B714BE81FFF0D085E080938100F7
:107E100082E08093C00088E18093C10086E0809377
:107E2000C20080E18093C4008EE0C9D0259A86E02C
:107E300020E33CEF91E0309385002093840096BBD3
:107E4000B09BFECF1D9AA8958150A9F7CC24DD24C4
:107E500088248394B5E0AB2EA1E19A2EF3E0BF2EE7
:107E6000A2D0813461F49FD0082FAFD0023811F036
:107E7000013811F484E001C083E08DD089C08234E0
:107E800011F484E103C0853419F485E0A6D080C0E4
:107E9000853579F488D0E82EFF2485D0082F10E0AE
:107EA000102F00270E291F29000F111F8ED06801E7
:107EB0006FC0863521F484E090D080E0DECF843638
:107EC00009F040C070D06FD0082F6DD080E0C81688
:107ED00080E7D80618F4F601B7BEE895C0E0D1E017
:107EE00062D089930C17E1F7F0E0CF16F0E7DF06D8
:107EF00018F0F601B7BEE89568D007B600FCFDCFD4
:107F0000A601A0E0B1E02C9130E011968C91119780
:107F100090E0982F8827822B932B1296FA010C0160
:107F200087BEE89511244E5F5F4FF1E0A038BF0790
:107F300051F7F601A7BEE89507B600FCFDCF97BE46
:107F4000E89526C08437B1F42ED02DD0F82E2BD052
:107F50003CD0F601EF2C8F010F5F1F4F84911BD097
:107F6000EA94F801C1F70894C11CD11CFA94CF0C13
:107F7000D11C0EC0853739F428D08EE10CD085E9AC
:107F80000AD08FE07ACF813511F488E018D01DD067
:107F900080E101D065CF982F8091C00085FFFCCF94
:107FA0009093C60008958091C00087FFFCCF809118
:107FB000C00084FD01C0A8958091C6000895E0E648
:107FC000F0E098E1908380830895EDDF803219F02E
:107FD00088E0F5DFFFCF84E1DECF1F93182FE3DFCA
:107FE0001150E9F7F2DF1F91089580E0E8DFEE27F6
:047FF000FF270994CA
:027FFE00040479
:00000001FF
